:100000000C941B010C944C010C944C010C944C016D
:100010000C944C010C944C010C944C010C944C012C
:100020000C944C010C944C010C944C010C944C011C
:100030000C944C010C944C010C944C010C944C010C
:100040000C944C010C944C010C944C010C944C01FC
:100050000C944C010C944C010C944C010C94E40D48
:100060000C944C010C94580E0C942E0E0C944C01D4
:100070000C944C010C944C010C944C010C944C01CC
:100080000C944C010C944C010C944C010C944C01BC
:100090000C944C010C944C010C944C010C944C01AC
:1000A0000C944C010C944C010C944C010C944C019C
:1000B0000C944C010C944C010C944C010C944C018C
:1000C0000C944C010C944C010C944C010C944C017C
:1000D0000C944C010C944C010C944C010C944C016C
:1000E0000C944C010C949D010C9495010C94990175
:1000F0000C9468020C9452110C94A4010C944602C6
:100100000C94B4010C947E010C94BC010C94370245
:100110000C94D4010C94D0010C94AA010C94CA0143
:100120000C94C2010C9483010C940A020C94A1015A
:100130000C945A020C94C6010C94ED020C94A0028B
:100140000C94B8010C94AE01000022002500280098
:100150002B002E00310034000201000005010801CF
:100160000B0105050505070508080808020202023B
:100170000A0A080804040404010101010101010143
:100180000303030303030303040707070C0C0C0C0E
:100190000C0C0C0C020202020606060606060606F7
:1001A0000B0B0B0B0B0B0B0B010210202008081084
:1001B00020401020408002010201080402010102D7
:1001C00004081020408080402010080402018004B0
:1001D000020180402010080402010804020101020B
:1001E0000408102040800102040810204080000014
:1001F0000A0B02090C0D0E080703040100000000A1
:1002000000000000000000000000000000000000EE
:1002100000000000000000000000121110000000AB
:1002200000000000000000000000000000000000CE
:1002300000000000521111241FBECFEFDFEFDEBF20
:10024000CDBF00E00CBF14E0A0E0B2E0EAEDF5E2C3
:1002500000E00BBF02C007900D92A634B107D9F79A
:1002600028E0A6E4B4E001C01D92A030B207E1F797
:1002700011E0CBE1D1E000E006C021970109802F19
:10028000FE010E947F11CA31D10780E00807A9F75B
:100290000E948E0E0C94EB120C940000282F30E07C
:1002A000F901E251FE4F9491F901E855FE4F449156
:1002B0002E593E4FF9012491222309F435C0992388
:1002C00011F191509231F8F4E92FF0E08827E459C8
:1002D000FE4F8F4F0C947F119D01A1017E0195016E
:1002E00099018301A401AA01AE01B401B801BC01C6
:1002F000C201C6018301CA01D001D40180918000EE
:100300008F7780938000E22FF0E0EE0FFF1FE85B15
:10031000FE4FA591B4918FB7F894EC91611148C04C
:1003200040954E234C938FBF0895809180008F7D20
:10033000E8CF80918000877FE4CF84B58F7784BD3C
:10034000E2CF84B58F7DFBCF8091B0008F77809313
:10035000B000D9CF8091B0008F7DF9CF809190000F
:100360008F7780939000CFCF809190008F7DF9CFD1
:1003700080919000877FF5CF8091A0008F77809348
:10038000A000C1CF8091A0008F7DF9CF8091A00007
:10039000877FF5CF809120018F7780932001B3CFA5
:1003A000809120018F7DF9CF80912001877FF5CF4B
:1003B0004E2BB8CF8230910538F0880F991F880FE7
:1003C000991F05970197F1F708953FB7F894809129
:1003D000F8079091F907A091FA07B091FB0726B5AD
:1003E000A89B05C02F3F19F00196A11DB11D3FBF6D
:1003F000BA2FA92F982F8827BC01CD01620F711D3C
:10040000811D911D42E0660F771F881F991F4A9535
:10041000D1F70895AF92BF92CF92DF92EF92FF9201
:100420000F931F93CF93DF936C017B018B01040F1C
:10043000151FEB015E01AE18BF08C017D10759F0B8
:100440006991D601ED91FC910190F081E02DC601FA
:100450001995892B79F7C501DF91CF911F910F91E4
:10046000FF90EF90DF90CF90BF90AF900895FC0188
:10047000538D448D252F30E0842F90E0821B930B09
:10048000541710F0CF96089501970895FC01918DAF
:10049000828D981761F0A28DAE0FBF2FB11D5D96B2
:1004A0008C91928D9F5F9F73928F90E008958FEF54
:1004B0009FEF0895FC01918D828D981731F0828D08
:1004C000E80FF11D858D90E008958FEF9FEF08955F
:1004D000FC01918D228D892F90E0805C9F4F821BC3
:1004E00091098F73992708958BE397E00E94680222
:1004F00021E0892B09F420E0822F0895FC01A48DCE
:10050000A80FB92FB11DA35ABF4F2C91848D90E035
:1005100001968F739927848FA689B7892C93A08918
:10052000B1898C91837080648C93938D848D9813A2
:1005300006C00288F389E02D80818F7D8083089535
:10054000EF92FF920F931F93CF93DF93EC0181E023
:10055000888F9B8D8C8D98131AC0E889F9898081CA
:1005600085FF15C09FB7F894EE89FF896083E889FD
:10057000F98980818370806480839FBF81E090E0EF
:10058000DF91CF911F910F91FF90EF900895F62E7C
:100590000B8D10E00F5F1F4F0F731127E02E8C8D16
:1005A0008E110CC00FB607FCFACFE889F98980815B
:1005B00085FFF5CFCE010E947E02F1CFEB8DEC0FCF
:1005C000FD2FF11DE35AFF4FF0829FB7F8940B8F78
:1005D000EA89FB8980818062CFCFCF93DF93EC01E2
:1005E000888D8823B9F0AA89BB89E889F9898C911B
:1005F00085FD03C0808186FD0DC00FB607FCF7CFD7
:100600008C9185FFF2CF808185FFEDCFCE010E94D6
:100610007E02E9CFDF91CF91089580E090E0892BB1
:1006200029F00E94740281110E94000080E090E095
:10063000892B49F080E090E0892B29F00E9400008E
:1006400081110E94000080E090E0892B49F080E059
:1006500090E0892B29F00E94000081110E94000087
:1006600080E090E0892B49F080E090E0892B29F030
:100670000E94000081110C940000089583309105C0
:1006800058F4880F991F880F991FFC01EA5FFB4FF0
:10069000828193810F9719F090E080E0089581E0C6
:1006A00090E0089520914904209530E0F901EA5F37
:1006B000FC4F908190952A5F3D4FD9018C914091DC
:1006C00047045091480442505109E9E4F4E031965E
:1006D0009F01295434402417350770F42081922754
:1006E000292F30E0D901AA5FBC4F9C9198272A5F3F
:1006F0003D4FD9018C91EBCF089523E030E030934A
:10070000480420934704E9E4F4E09091280790839B
:1007100080588183628308950F931F93582F5770D9
:1007200001E010E020E030E004C0000F111F221FA4
:10073000331F5A95D2F723E0969587952A95E1F7CE
:100740009927E0913207F0913307662321F0E09179
:100750003807F0913907E80FF91F8081442329F009
:10076000082B00831F910F91089500950823F9CF5E
:100770002F923F924F925F926F927F928F929F92B1
:10078000AF92BF92CF92DF92EF92FF920F931F939F
:10079000CF93DF93CDB7DEB7C354D1090FB6F8942A
:1007A000DEBF0FBECDBF10E000E0F801EE0FFF1F6F
:1007B000E854F94F0190F081E02D309749F041E085
:1007C0008081811101C040E060E0C8010E948C037B
:1007D0000F5F1F4F0833110541F7E0902907F09094
:1007E0002A0708E716E019AF08AF8701005C1F4F22
:1007F000F70128E736E0D9018D919D919D01009781
:1008000029F0DC018D919C91918380833296E017D1
:10081000F10789F7D12CC12CF601EE0FFF1FE85F1D
:10082000F94F0190F081E02D309749F041E080814F
:10083000811101C040E061E0C6010E948C03BFEF5E
:10084000CB1ADB0AE8E3CE16D10431F748EC55E0C9
:10085000E0913507F09136079F01205C3F4FDA01A8
:100860008D919D91AD01009729F0DC018D919C91B6
:100870009183808332962E173F0789F7E0EAF5E0EF
:10088000FBAFEAAFF80108E6E00EF11C20EA35E024
:10089000D9018D919D919D01009729F0DC018D91E9
:1008A0009C91918380833296EE15FF0589F7E8E7E6
:1008B000F5E0FDAFECAFE0912C07F0912D079F0123
:1008C000205B3F4F08E715E0D8018D919D918D0188
:1008D000009749F0DC014D915D916D917C914083D1
:1008E00051836283738334962E173F0769F7E0E5DF
:1008F000F5E0FFAFEEAFE0912F07F09130079F01D9
:1009000020563F4F80E595E0DC01CD90DD90CD0194
:10091000C114D104F1F0D601EC901196FC9011971E
:1009200012960C91129713961C91139714967C9122
:10093000149715966C91159716965C9116971796C5
:100940004C91E082F1820283138374836583568322
:10095000478338962E173F07B9F610924804109235
:10096000470480914E0590914F05DC01ED91FC917B
:100970000084F185E02D1995892B09F483C08091BD
:100980004E0590914F05DC01ED91FC910084F185BD
:10099000E02D19952091470430914804A0914E050F
:1009A000B0914F05ED91FC9111970084F185E02DF8
:1009B0002817390768F4CD0119959093480480935E
:1009C000470480914B0590914C050E94DA01D7CFE6
:1009D000CD011995813091400CF054C080914E05A5
:1009E00090914F05DC01ED91FC910084F185E02DA3
:1009F000199506970CF446C049E4842E44E0942EE1
:100A00008401E0904704F0904804C8018954944060
:100A10008E159F0578F480914E0590914F05DC016D
:100A2000ED91FC910284F385E02D1995F8018193F5
:100A30008F01E7CF10914A048FEB810F853080F052
:100A40000E9452039701275B3B4FF9013297408187
:100A500021503109D9012C91342F2817390791F4ED
:100A60009091490480912807981709F4CDC080918E
:100A70004E0590914F05DC01ED91FC910680F781C8
:100A8000E02D1995409132075091330730E020E076
:100A9000F901EE0FFF1FE854F94F0190F081E02DAE
:100AA000309799F0D90183E0B695A7958A95E1F73B
:100AB000A40FB51F8C9190E0622F677002C09595CE
:100AC00087956A95E2F7817080832F5F3F4F2833C7
:100AD0003105F1F68091290790912A07BC01605CED
:100AE0007F4FDC01E8ADF9AD21913191F9AFE8AF6D
:100AF0002115310531F04D915C911197F901518328
:100B0000408312966A177B0769F7FB0188599F4F4C
:100B1000AAADBBAD4D915D91BBAFAAAF41155105DB
:100B200029F020813181DA012D933C9332968E1782
:100B30009F0771F7E0912C07F0912D07CF01805BA3
:100B40009F4FACADBDAD2D913D91BDAFACAF21156B
:100B5000310551F04081518162817381D9014D93FA
:100B60005D936D937C93139734968E179F0749F787
:100B7000E0912F07F0913007CF0180569F4FAEAD27
:100B8000BFADED90FD90BFAFAEAFE114F104F1F059
:100B90000081118172816381548145813681278171
:100BA000D7010C9311961C93119712967C93129770
:100BB00013966C93139714965C93149715964C9315
:100BC000159716963C93169717962C9338968E1772
:100BD0009F07A9F6CD5BDF4F0FB6F894DEBF0FBEBF
:100BE000CDBFDF91CF911F910F91FF90EF90DF90DC
:100BF000CF90BF90AF909F908F907F906F905F90BD
:100C00004F903F902F900895B2E0EB1AF108F092C8
:100C10004804E092470480914B0490914C04382E94
:100C2000292E60904D0470904E047624672476241B
:100C3000D0904D0420914F0430E01F3009F48AC554
:100C4000A0F5133009F480C158F4113009F4F5C34C
:100C5000123009F484C461E070E0812F90E022C07A
:100C6000153009F457C508F40BC51630A1F72091CB
:100C70002B0780912E0790E0880F991FE22FF0E05C
:100C80008E0F9F1F4091310704E0409FA001112467
:100C9000480F591F2416350608F449C062E070E079
:100CA00086E090E00E947D034FC0123409F406C72D
:100CB00098F4103109F462C2113469F684E090E0CE
:100CC000909348048093470410934A0410924B0475
:100CD00083E080934C0438C0143409F45DC608F4F2
:100CE000DDC5153409F0B7CF8D3AFEED9F0709F049
:100CF00058C71092460485E480934A048EE7809397
:100D00004B0481E2E4E2F4E0DE01119601900D92E1
:100D10008A95E1F7FE013196ACE4B4E081919D0142
:100D200029543440882309F44AC78D93F7CF2E16EF
:100D30003F06D8F4220C331CE0912907F0912A07D2
:100D4000E20DF31D71826082809147049091480406
:100D500002968130914008F45AC580914A0464E0BB
:100D600070E090E00E947D0352C528163906F0F528
:100D7000A30170E060E080912C0790912D0720FC8A
:100D80001CC091012E1B3F0BF901EE0FFF1FEC7FE2
:100D9000F370E80FF91F80819181A281B381AA27A6
:100DA000BB27BA0155274427842B952BA62BB72B9D
:100DB00080839183A283B383C7CFE095F095E20D42
:100DC000F31DEE0FFF1FEC7FF370E80FF91F60803B
:100DD0007180828093806624772446295729682968
:100DE00079294083518362837383AECF910123704D
:100DF00033274301B12CA12CC12CD12C7601E091D9
:100E00002F07F09130072115310549F5281A390AC5
:100E1000220C331C38EF232237E03322E20DF31D7E
:100E20005080618072801381B481A581940140E07B
:100E300050E060E070E080E090E000E30E94871105
:100E400025292083632A6182742A7282152B1383D9
:100E5000B62BB483A72BA5838683978375CF2130C8
:100E6000310541F56FEF261A360A281A390A220C85
:100E7000331C88EF282287E03822E20DF31D5080D2
:100E8000618072801381B681A7819401A501B601AA
:100E9000C70100E20E948711522A5082632A6182B0
:100EA000742A7282152B1383648375838B2B86833C
:100EB0009A2BD3CF2230310529F5A2E02A0E311C1E
:100EC000281A390A220C331CB8EF2B22B7E03B2238
:100ED000E20DF31D5080618074801581B681A78179
:100EE0009401A501B601C70100E10E948711522AB1
:100EF0005082632A618242835383762A7482172B3D
:100F00001583D4CF03E0200E311C281A390A220C95
:100F1000331C18EF212217E03122E20DF31D52811C
:100F200043813481258196818781808291825A29EB
:100F300052834B2943833C2934832D2925839E29C1
:100F400096838F29878300CFC301019763E070E008
:100F50008D379105C8F46101C60CD71C40912B0751
:100F6000E0912E07F0E0EE0FFF1FE40FF11D8091DE
:100F7000310724E0829FC00111248E0F9F1FC816E5
:100F8000D90628F062E070E083E090E08BCE660C3A
:100F9000771CC30103969093480480934704A9E407
:100FA000B4E011969D01295434402817390710F4F4
:100FB0001C92F7CF93E090934A04835080934B04A4
:100FC000E0902F07F0903007A0902C07B0902D07ED
:100FD000A0912907B0912A07BAA7A9A7A42FB0E02A
:100FE000BBABAAAB83E090E02C014E1A5F0A3D0137
:100FF000609470942C143D0409F4A6CEAAA9BBA950
:101000002A163B0660F49101220F331FA9A5BAA549
:101010002A0F3B1FD9018C9111963C911AC02E16B4
:101020003F0670F520FC22C0C101AAA9BBA98A1BFA
:101030009B0B880F991F8C7F93708A0D9B1DDC0181
:101040004D915D916D917C91AB0166277727842F3F
:10105000352FD40113963C93139714968C93B2E0DA
:101060008B0E911C0FEF201A300AC4CF9301220D72
:10107000331D220F331F2C7F33702A0D3B1DCACF27
:101080008101037011270115110521F581010E1B46
:101090001F0B000F111F087F17700E0D1F1DD801A9
:1010A0002C9111963C91119712964C911297139690
:1010B0005C91139714966C91149715967C911597E3
:1010C00016968C91169717969C9100E30E94A21198
:1010D000822FBFCF0130110511F50E1B1F0B020D22
:1010E000131D000F111F087F17700E0D1F1DD80153
:1010F0002C9111963C91119712964C911297139640
:101100005C91139714966C91149715967C91159792
:1011100016968C91169717969C9100E2D7CF0230C5
:10112000110511F50E1B1F0B020D131D000F111FD2
:10113000087F17700E0D1F1DD8012C9111963C9140
:10114000119712964C91129713965C9113971496DF
:101150006C91149715967C91159716968C9116970D
:1011600017969C9100E1B2CF9201220D331D220F00
:10117000331F287F37702E0D3F1D4CCFC3010197C1
:101180008B37910530F4C301880F991F2817390751
:1011900029F063E070E080E190E084CDD101A60DFC
:1011A000B71DBDABACAB80912B0740902E07512CE7
:1011B000440C551CA82EB12C4A0C5B1C2091310705
:1011C000B4E02B9F90011124240D351DECA9FDA93D
:1011D000E217F30718F062E070E0DDCF26E030E0C0
:1011E000309348042093470410934A0430924B04F0
:1011F00020924C0410924D0460924E0460902F0790
:1012000070903007C0902C07D0902D07DFAACEAA8F
:101210004091290750912A079101220F331F7A012B
:10122000E20EF31EFBAAEAAAD101A419B509C50171
:1012300080959095FC01E40DF51D2296FFAFEEAF71
:1012400022976201CA18DB082496DFAECEAE24973F
:10125000ECA8FDA82E143F0409F4D9C2F40147817B
:101260008085542F482F2A143B0488F4EAA9FBA94F
:1012700051834083EAA9FBA93296FBABEAAB1196F6
:10128000FFEF2F1A3F0A02E0800E911CE1CF2414D9
:101290003504C8F570E060E020FC20C02496EEAD77
:1012A000FFAD2497EA0FFB1FEE0FFF1FEC7FF370DB
:1012B000CEA8DFA8EC0DFD1D0081118122813381B4
:1012C00022273327BA0155274427402B512B622B65
:1012D000732B4083518362837383CCCF2296EEAD10
:1012E000FFAD2297EA0FFB1FEE0FFF1FEC7FF3709D
:1012F000EEA8FFA8EE0DFF1D008111812281338130
:1013000000271127E2CFC101837099276A01F12CD0
:10131000E12C00E010E09801C9A6DAA6EBA6FCA635
:101320000DA71EA72FA738ABFD01009741F5EE0FC3
:10133000FF1FE87FF770E60DF71DD080D9AAC180A6
:10134000D280E380F480158129A53AA540E050E0E1
:1013500060E070E080E090E000E30E94871109A95E
:10136000202B20833C2931834D2942835E295383DE
:10137000F62AF482172B1583868397837BCF8130DF
:10138000910541F53196EE0FFF1FE87FF770E60DEE
:10139000F71D108119ABC180D280E380F6801781E0
:1013A00029A53AA540E050E060E070E080E090E0E0
:1013B00000E20E94871109A9202B20833C29318358
:1013C0004D294283E52AE382648375838F298683CE
:1013D000912BD3CF029729F53296EE0FFF1FE87FAE
:1013E000F770E60DF71D108119ABC180D480E58040
:1013F000F680178129A53AA540E050E060E070E052
:1014000080E090E000E10E94871109A9202B208351
:101410003C29318342835383D62AD482E72AE5824A
:10142000D5CF3396EE0FFF1FE87FF770E60DF71D5F
:1014300019A510832AA521831DCFC301019763E05D
:1014400070E0803D974068F520913407C101860D1A
:10145000971D62E070E02817190618F1C30143E0F8
:10146000969587954A95E1F79C012D5F3F4F309304
:10147000480420934704930127703327232B29F036
:101480000496909348048093470480914704909178
:101490004804E9E4F4E0813021E0920728F064E0B8
:1014A00070E081E090E0FECB31969F0129543440FA
:1014B0002817390710F41082F7CF91E090934A046F
:1014C000835080934B04009132071091330770E0F2
:1014D00060E020E0C12CD12C7601C394D701C60175
:1014E000022E04C0880F991FAA1FBB1F0A94D2F7AF
:1014F00089A79AA7ABA7BCA7FB0183E0F695E79560
:101500008A95E1F7E45BFB4F3081A10193E05695AA
:1015100047959A95E1F74F715527400F511FDA0112
:101520004C9150E0B22DB77002C055954795BA95D1
:10153000E2F789A540FF0FC0832B80832F5F2830FF
:1015400009F420E0EFEF2E1A3E0A6F5F7F4F661618
:10155000770621F6F9CB809538233083EFCFC3018E
:10156000019763E070E0803D974068F520913A076D
:10157000C101860D971D62E070E02817190618F169
:10158000C30113E0969587951A95E1F79C012D5FAD
:101590003F4F30934804209347049301277033272B
:1015A000232B29F00496909348048093470480915C
:1015B000470490914804E9E4F4E0813001E09007A9
:1015C00028F064E070E082E090E06CCB31969F01FF
:1015D000295434402817390710F41082F7CF92E0CD
:1015E00090934A04835080934B0460913807709124
:1015F000390750E040E010E0C12CD12C7601C394B3
:10160000D701C601012E04C0880F991FAA1FBB1F56
:101610000A94D2F789A79AA7ABA7BCA7FA0133E02F
:10162000F695E7953A95E1F7E45BFB4F0081910170
:10163000A3E036952795AA95E1F7260F372F311DA0
:10164000D9012C9130E0B22DB77002C035952795A5
:10165000BA95E2F789A520FF0FC0802B80831F5F1A
:10166000183009F410E0EFEF2E1A3E0A4F5F5F4F7B
:101670006416750629F668CB809508230083EFCFA2
:10168000C301019763E070E08D37910550F420911C
:101690003707C101860D971D2817190628F462E047
:1016A00070E084E090E0FECAC301880F991F0396A2
:1016B0009093480480934704E9E4F4E031969F0155
:1016C000295434402817390710F41082F7CF94E0DA
:1016D00090934A04835080934B04220C331CE09176
:1016E0003507F0913607E20DF31D01E0601A71082D
:1016F00012E0810E911C2FEF6216720609F424CBC2
:10170000808191813296D40111969C931197129603
:101710008C93EBCF6114BFEF7B0629F063E070E0A0
:101720006114710449F4809134078150990B82153A
:10173000930528F462E070E085E090E0B3CA41E0F0
:101740006114EFEF7E0609F040E060E0C1010E9405
:101750008C03FACAA30113E0569547951A95E1F751
:10176000842FB30167707727672B11F081E0840F16
:10177000A30141505109403B574018F4821713060A
:1017800029F063E070E08FE090E08CCA209134078C
:10179000C101860D971D2817190618F462E070E044
:1017A000F2CF86E090E090934804809347048FE066
:1017B00080934A0430924B0420924C0470924D0462
:1017C00060924E0410E000E0F12CF801A3E0F695E1
:1017D000E795AA95E1F7E75BFB4F478150E00F2CB7
:1017E00002C0559547950A94E2F7417060E0C10147
:1017F000800F911F0E948C03F394B8E0CB2EFC1055
:1018000001C0F12C0F5F1F4F60167106F1F60091B9
:10181000470410914804780122E0E20EF11CF09296
:101820004804E09247040E945203F801E75BFB4F33
:101830009083818380914D0587FD09C061E00E94FE
:101840004E018091490590914A050E94DA018091EC
:101850004E0590914F05DC01ED91FC910280F381E2
:10186000E02DA70169E474E0199580914E059091EF
:101870004F05DC01ED91FC910680F781E02D199573
:101880008091490590914A050E94DA0180914D05A9
:1018900087FDF8C860E00E944E01F4C803E02016FE
:1018A000310408F06EC013E06116710408F069C0DD
:1018B0006214730408F465C08101000F111F000F4A
:1018C000111F0A5F1B4F5101F4E58F2EF4E09F2E8C
:1018D00090E080E0D80112962D913C91D12CC12C42
:1018E0002F30310519F4CC24C394D12C7C01EC0C9D
:1018F000FD1CA701455F5F4F4130514008F03FC0DC
:10190000F801608171812F30310511F060E070E0E5
:10191000A601C4010E94E2128C0C9D1C95012F5F50
:101920003F4F0C5F1F4FC70115016216730628F564
:10193000C7010796909348048093470483E48093FB
:101940004A048EE780934B0410924C0420924D047D
:101950008091E6079091E7072091E8073091E90729
:1019600030934E0420934F0490935004809351047D
:10197000F0925204E0925304E7C95901ABCF7C01C5
:10198000D7CF83E090E0909348048093470483E4AA
:1019900080934A0481E829C0F5E12F163104E0F470
:1019A0008E010F5F1F4F2801F801D12CC12C12E0CE
:1019B000810E911C2C143D04D9F0D40112968C9107
:1019C000129713969C918927982789278193919341
:1019D000BFEFCB1ADB0AEBCF83E090E09093480493
:1019E0008093470410934A0482E880934B04ACC967
:1019F000B12CA12C19A6712C612C0BE010E0CA149B
:101A0000DB04C1F1F201E190F1902F01F3E0EF1658
:101A1000F10440F083E090E0909348048093470401
:101A200084E4B6CFC7010E943E034C011C01200E86
:101A3000311E21E022163206E8F4F701EE0FFF1FF7
:101A4000EE0FFF1FEA5FFB4F6081718182819381FE
:101A50000F9711F060E070E0A401C801875B9B4F15
:101A60000E94E212680C791C3FEFA31AB30AE9A6A0
:101A70008101C5CF109348040093470484E4809308
:101A80004A048EE780934B0410924C04C9A4C09280
:101A90004D048091E6079091E7072091E807309187
:101AA000E90730934E0420934F04909350048093A1
:101AB0005104709252046092530446C903E0201608
:101AC000310450F480914E0490914F049827892757
:101AD00098278A3F910540F083E090E09093480476
:101AE0008093470482E454CF8101000F111F000F3F
:101AF000111FF801EA5FFB4FE280F38080914604FA
:101B0000813081F0F801EA5FFB4F00811181D11033
:101B100029C0BFE0EB16F104C9F5F80181818D7F82
:101B2000818334C020E1E216F10461F3C1010E9417
:101B30003E039C0136952795FC01E75BFB4FA9E42A
:101B4000B4E03197CD018954944082179307D0F6C1
:101B500017968C911797978117969C931797878361
:101B60001196EFCFC1010E943E033FE0E316F1045E
:101B700069F4AC0160E574E0C8010E94E212D8018A
:101B800011968C911197826011968C9383E090E06E
:101B9000909348048093470482E480934A048EE73C
:101BA00024CF8E3D9D4A21F481E080934604A3C852
:101BB00083E090E090934804809347049CC830935E
:101BC000480420934704C0C81F920F920FB60F928B
:101BD00011242F933F938F939F93AF93BF93809143
:101BE000F4079091F507A091F607B091F7073091AF
:101BF000F30723E0230F2D3758F50196A11DB11DE2
:101C00002093F3078093F4079093F507A093F607CA
:101C1000B093F7078091F8079091F907A091FA0720
:101C2000B091FB070196A11DB11D8093F807909319
:101C3000F907A093FA07B093FB07BF91AF919F916B
:101C40008F913F912F910F900FBE0F901F9018957D
:101C500026E8230F0296A11DB11DD2CF1F920F922D
:101C60000FB60F9211240BB60F922F933F934F9301
:101C70005F936F937F938F939F93AF93BF93EF93F4
:101C8000FF938BE397E00E947E02FF91EF91BF915B
:101C9000AF919F918F917F916F915F914F913F9104
:101CA0002F910F900BBE0F900FBE0F901F901895A5
:101CB0001F920F920FB60F9211240BB60F922F9313
:101CC0008F939F93EF93FF93E0914B07F0914C0715
:101CD0008081E0915107F091520782FD1DC09081F3
:101CE000809154078F5F8F7320915507821741F0C1
:101CF000E0915407F0E0E55CF84F958F809354072E
:101D0000FF91EF919F918F912F910F900BBE0F90AC
:101D10000FBE0F901F9018958081F2CF789484B5F4
:101D2000826084BD84B5816084BD85B5826085BDD7
:101D300085B5816085BD80916E00816080936E0065
:101D40001092810080918100826080938100809157
:101D50008100816080938100809180008160809308
:101D600080008091B10084608093B1008091B000C8
:101D700081608093B0008091910082608093910097
:101D800080919100816080939100809190008160AA
:101D9000809390008091A10082608093A100809147
:101DA000A10081608093A1008091A0008160809358
:101DB000A000809121018260809321018091210106
:101DC00081608093210180912001816080932001B6
:101DD00080917A00846080937A0080917A0082609A
:101DE00080937A0080917A00816080937A0080915C
:101DF0007A00806880937A001092C10091E09093FD
:101E0000D8071092DA071092DC07E0914B07F091A7
:101E10004C0782E08083E0914707F09148071082E9
:101E2000E0914907F0914A0780E1808310925307BF
:101E3000E0914F07F091500786E08083E0914D07D5
:101E4000F0914E07808180618083E0914D07F09191
:101E50004E07808188608083E0914D07F0914E07A6
:101E6000808180688083E0914D07F0914E078081EA
:101E70008F7D80832BE337E030934F0520934E0511
:101E80008FEF80934D052EEE32E030934C0520937A
:101E90004B0521E43AE030934A052093490590939D
:101EA000280784E380932B0784E180932E07809397
:101EB000310788E38093340790E29093370780934B
:101EC0003A0787E090E00E94BD119093330780931A
:101ED0003207009709F451C0C7E0FC012C2F119282
:101EE0002A95E9F788E690E00E94BD1190932A07B1
:101EF00080932907009709F440C028E6FC0111925D
:101F00002A95E9F780E590E00E94BD1190932D0796
:101F100080932C07009789F120E5FC0111922A9506
:101F2000E9F780EA90E00E94BD119093300780931A
:101F30002F07009711F120EAFC0111922A95E9F789
:101F400087E090E00E94BD11909339078093380795
:101F5000009799F0FC011192CA95E9F780E490E0AE
:101F60000E94BD119093360780933507009729F0A2
:101F700020E4FC0111922A95E9F7D0E0C0E08E013F
:101F8000000F111F0854194FF80180819181892B8E
:101F900049F481E090E00E94BD11F80191838083B3
:101FA000FC0110822196C833D10549F7C091290759
:101FB000D0912A07E8E7F6E090E080E021913191A6
:101FC000232B39F4DF0112979E01280F391F2D931F
:101FD0003C9302968034910589F710E000E0C80137
:101FE000880F991F9C01285F394F7901F901808181
:101FF0009181892B49F481E090E00E94BD11F701A5
:1020000091838083FC0110820F5F1F4F08331105FD
:1020100031F72091350730913607E8ECF5E090E094
:1020200080E041915191452B39F4DF011297A901CC
:10203000480F591F4D935C9302968034910589F7A0
:10204000E0EAF5E090E080E0C05CDF4F2191319163
:10205000232B39F4DF0112979E01280F391F2D938E
:102060003C9302968832910589F740912C07509154
:102070002D07E8E7F5E090E080E021913191232BF6
:1020800059F4DF0112979C01220F331F220F331FD7
:10209000240F351F2D933C9301968431910569F7E8
:1020A00040912F0750913007E0E5F5E090E080E0A7
:1020B00021913191232B61F4DF0112979C0163E0A0
:1020C000220F331F6A95E1F7240F351F2D933C93A0
:1020D00001968431910561F780E29EE4A0E0B0E0D2
:1020E0008093EB079093EC07A093ED07B093EE0776
:1020F0000E94E5016093EF077093F0078093F1076A
:102100009093F207C1E00E94E5010091EF07109162
:10211000F0072091F1073091F207601B710B820BE1
:10212000930B0091EB071091EC072091ED07309194
:10213000EE07601771078207930708F47AC0809151
:10214000E6079091E707A091E807B091E9070196AB
:10215000A11DB11D8093E6079093E707A093E807C0
:10216000B093E9078091DD0781FD0BC08091D8070E
:10217000882321F081E09091DA07911180E080932B
:10218000DC078091E2079091E307A091E407B0910A
:10219000E507AC01BD01535D6E4C7E4F4115FAEC75
:1021A0005F07FAE96F07FBE37F0708F05BC0409326
:1021B000E2075093E3076093E4077093E5070E94FA
:1021C000B8038091EA07811118C0C093EA070E9402
:1021D000E5010091EB071091EC072091ED0730919C
:1021E000EE07601B710B820B930B6093EF077093EC
:1021F000F0078093F1079093F2078091EF07909199
:10220000F007A091F107B091F2074091EB075091D0
:10221000EC076091ED077091EE07840F951FA61FE4
:10222000B71F8093EF079093F007A093F107B09347
:10223000F2070E94E5010091EF071091F00720914D
:10224000F1073091F207601B710B820B930B603129
:1022500077428105910510F00E94B80388950E948D
:102260000D0351CF4091DE075091DF076091E007E9
:102270007091E1079D59A946BA438093E207909374
:10228000E307A093E407B093E5074F5F5F4F6F4FFD
:102290007F4F4093DE075093DF076093E007709312
:1022A000E1078DCFEBE3F7E01382128288EE93E033
:1022B000A0E0B0E084839583A683B78386E194E0B1
:1022C0009183808385EC90E09587848784EC90E00F
:1022D0009787868780EC90E0918B808B81EC90E0F3
:1022E000938B828B82EC90E0958B848B86EC90E0D4
:1022F000978B868B118E128E138E148E0895EE0F8F
:10230000FF1F881F8BBF0790F691E02D1994002EB8
:10231000083090F0982F872F762F652F542F432F5A
:10232000322F22270850F4CF220F331F441F551F8E
:10233000661F771F881F991F0A95B2F7002D089511
:1023400097FD1094002E083098F00850232F342F5A
:10235000452F562F672F782F892F912DF4CF159465
:1023600097958795779567955795479537952795CD
:102370000A95AAF71124002D08950F931F93CF9368
:10238000DF938230910510F482E090E0E091FE0747
:10239000F091FF0730E020E0B0E0A0E0309799F442
:1023A0002115310509F44AC0281B390B24303105A9
:1023B000D8F58A819B816115710589F1FB019383B1
:1023C0008283FE0111C0408151810281138148172F
:1023D0005907E0F04817590799F4109761F01296E1
:1023E0000C93129713961C933296CF01DF91CF91E5
:1023F0001F910F9108950093FE071093FF07F4CFEC
:102400002115310551F04217530738F0A901DB01BE
:102410009A01BD01DF01F801C1CFEF01F9CF90931F
:10242000FF078093FE07CDCFFE01E20FF31F8193DC
:1024300091932250310939832883D7CF2091FC070B
:102440003091FD07232B41F42091020230910302C9
:102450003093FD072093FC07209100023091010288
:102460002115310541F42DB73EB74091040250913A
:102470000502241B350BE091FC07F091FD07E217E4
:10248000F307A0F42E1B3F0B2817390778F0AC0197
:102490004E5F5F4F2417350748F04E0F5F1F509374
:1024A000FD074093FC07819391939FCFF0E0E0E01C
:1024B0009CCFCF93DF930097E9F0FC013297138212
:1024C0001282A091FE07B091FF07ED0130E020E0FD
:1024D0001097A1F420813181820F931F2091FC0776
:1024E0003091FD072817390709F061C0F093FD0707
:1024F000E093FC07DF91CF910895EA01CE17DF0743
:10250000E8F54A815B819E0141155105B1F7E9016A
:10251000FB83EA8349915991C40FD51FEC17FD073E
:1025200061F4808191810296840F951FE90199835E
:102530008883828193819B838A83F0E0E0E0129616
:102540008D919C9113970097B9F52D913C9111971E
:10255000CD010296820F931F2091FC073091FD0759
:102560002817390739F6309751F51092FF07109266
:10257000FE07B093FD07A093FC07BCCFD383C283B3
:1025800040815181840F951FC817D90761F44E5FB0
:102590005F4F88819981480F591F518340838A81F9
:1025A0009B81938382832115310509F0B0CFF0938D
:1025B000FF07E093FE079ECFFD01DC01C0CF138231
:1025C0001282D7CFFB01DC0102C001900D92415075
:0A25D0005040D8F70895F894FFCFAB
:1025DA0000000008800000C0C101C30302C2C60691
:1025EA0007C705C5C404CC0C0DCD0FCFCE0E0ACA41
:1025FA00CB0BC90908C8D81819D91BDBDA1A1EDE91
:10260A00DF1FDD1D1CDC14D4D515D71716D6D21240
:10261A0013D311D1D010F03031F133F3F23236F650
:10262A00F737F53534F43CFCFD3DFF3F3EFEFA3A00
:10263A003BFB39F9F83828E8E929EB2B2AEAEE2E90
:10264A002FEF2DEDEC2CE42425E527E7E62622E200
:10265A00E323E12120E0A06061A163A3A26266A650
:10266A00A767A56564A46CACAD6DAF6F6EAEAA6AC0
:10267A006BAB69A9A86878B8B979BB7B7ABABE7E10
:10268A007FBF7DBDBC7CB47475B577B7B67672B2C0
:10269A00B373B17170B05090915193535292965650
:1026AA005797559594549C5C5D9D5F9F9E5E5A9A80
:1026BA009B5B99595898884849894B8B8A4A4E8E10
:1026CA008F4F8D4D4C8C4484854587474686824280
:1026DA0043834181804000C1814001C0804101C0E3
:1026EA00804100C1814001C0804100C1814000C1D8
:1026FA00814001C0804101C0804100C1814000C1C8
:10270A00814001C0804100C1814001C0804101C0B7
:10271A00804100C1814001C0804100C1814000C1A7
:10272A00814001C0804100C1814001C0804101C097
:10273A00804100C1814000C1814001C0804101C087
:10274A00804100C1814001C0804100C1814000C177
:10275A00814001C0804101C0804100C1814000C167
:10276A00814001C0804100C1814001C0804101C057
:10277A00804100C1814000C1814001C0804101C047
:10278A00804100C1814001C0804100C1814000C137
:10279A00814001C0804100C1814001C0804101C027
:1027AA00804100C1814001C0804100C1814000C117
:1027BA00814001C0804101C0804100C1814000C107
:1027CA00814001C0804100C1814001C0804101C0F7
:1027DA00804100C18140D8070F00DA070F00DC07EB
:1027EA000F0000000000A0020A023702ED02680290
:1027FA0046025A0263646562363631613732386698
:10280A003731366462343030376238613466636631
:06281A00373364360000B4
:00000001FF
